:10700000FFFFFFFF11241FBECFEFD8E0DEBFCDBFD3
:1070100011E0A0E0B1E0E0E3FBE702C005900D92D3
:10702000A030B107D9F711E0A0E0B1E001C01D9296
:10703000AB31B107E1F70E9426380C94963D0C94D1
:10704000003EF894FFCF0E94973C08952F923F9204
:107050004F925F926F927F928F929F92AF92BF9268
:10706000CF92DF92EF92FF920F931F93DF93CF9314
:10707000CDB7DEB7CF59D0400FB6F894DEBF0FBE04
:10708000CDBFCE01409690931901809318011092C4
:1070900017012FE088E190E00FB6F894A89580934F
:1070A00060000FBE2093600081E085BF82E085BF55
:1070B00078940E94143B813011F00E94213889E3BA
:1070C000888783E189871B868FEF8C878D878E87E2
:1070D0008F87E0E0F0E0859194918F5F9F4F19F4E6
:1070E0001A8682E002C081E08A87C156DF4F88831A
:1070F000CF59D0401F8281E08E8380E090E0A8E0ED
:10710000B0E089839A83AB83BC8388E08D838E0152
:107110000F5F1F4FC8010E94973C8130D9F782E072
:107120008D83AA24BB2400E010E0612C712C4CE17B
:10713000842E912C212C312C30E2432E512C0EC068
:10714000C156DF4F9881CF59D040913039F48091AA
:107150001701853019F4E0E0F0E0099580911A01FB
:10716000882371F38A89C156DF4FE881CF59D04017
:10717000E23061F1E33020F4E13009F0C6C00CC028
:10718000C156DF4FF881CF59D040F33009F448C0E1
:10719000F43009F0BAC0A9C08432C1F48C898430BB
:1071A00009F0B3C08F898F3F09F0AFC0888D8F3F42
:1071B00009F0ABC0898D8F3F09F0A7C08A8D8F3F42
:1071C00009F0A3C0E0E0F0E009959FC08C3009F021
:1071D0009CC08C89883009F098C08B8D8F3F09F056
:1071E00094C08C8D8F3F09F090C08D8D8F3F09F03A
:1071F0008CC08E8D8F3F09F088C0AF88B88CCE01CF
:107200004F960E94A73E69827A828B829C82B986C1
:10721000A88623E0C156DF4F2883CF59D0406FC0E6
:1072200069827A828B829C82803189F58F89988DE0
:107230008501080F191F998788878C8990E001962E
:1072400095958795E82E89E1C82ED12CCC0EDD1EB0
:10725000FF24F39413C080E70030180728F0298238
:107260003A824B825C820CC0F601619171916F0190
:10727000C8010E946E3E0E5F1F4FF394FE1458F338
:107280008C8990E081709070081B190B38C0843194
:1072900009F03BC00E94343EF50120E030E019C007
:1072A00084912827822F82958227082E869586959D
:1072B0008025082E869580258770022E232F86959F
:1072C00007948795302D2827069487953025282701
:1072D0003196E017F10720F339872887F4E0C1568B
:1072E000DF4FF883CF59D0400AC0883171F4698DDF
:1072F0007A8D4B8D5C8D8F89988D0E94C03FCE0119
:1073000001960E94973C8130D1F710921A0126CF46
:10731000CF93DF93EC018D81882309F44EC028813F
:1073200039814A815B81DA01C90180709070A07057
:10733000BE710097A105B105C1F5842F90E0A0E0D2
:10734000B0E00097A105B10539F4A8958091170127
:107350008F5F8093170115C00497A105B10589F4CB
:107360008C81843071F48F818F3F59F488858F3FF1
:1073700041F489858F3F29F48A858F3F11F40E945B
:10738000213880911A018823C1F4809118019091CD
:1073900019019C01D901FE018FE001900D928150ED
:1073A000E1F781E080931A0108C0E0911501F091A6
:1073B0001601309711F0CE010995DF91CF91089514
:1073C0008078409103015091040120E0A22FB0E0A9
:1073D000FD01E80FF91FE491A40FB51FEC932F5F97
:1073E0002038A1F70895282F439885E08EBD0DB46D
:1073F00007FEFDCF8EB58FE08EBD0DB407FEFDCF2D
:107400008EB52EBD0DB407FEFDCF8EB56EBD0DB48D
:1074100007FEFDCF8EB5439A439883E08EBD0DB431
:1074200007FEFDCF8EB58FE08EBD0DB407FEFDCFFC
:107430008EB51EBC0DB407FEFDCF8EB5439A90E00D
:107440008223861391E0892F0895EF92FF920F9384
:107450001F93DF93CF9300D000D0CDB7DEB7439812
:107460008170880F880F80578EBD0DB407FEFDCF49
:107470008EB5FE0131969E012B5F3F4F1EBC0DB4B1
:1074800007FEFDCF8EB58193E217F307B9F74A8166
:10749000242F22952695277030E0898190E053E0D3
:1074A000880F991F5A95E1F7282B392B790100E0B5
:1074B00010E043FF32C081E0FB018583242F30E0E0
:1074C00040E050E02370307040705070A9013327C5
:1074D00022278B8190E0A0E0B0E0BA2FA92F982F4F
:1074E0008827282B392B4A2B5B2B82E1EE0CFF1CC3
:1074F000001F111F8A95D1F72E293F29402B512BB0
:107500008C8190E0A0E0B0E0282B392B4A2B5B2B3C
:10751000208331834283538306C0FB011582E082BE
:10752000F182028313831EBC0DB407FEFDCF9EB50E
:10753000892F8F70FB018483893010F088E0848369
:10754000FB01168296FF02C081E0868390E00AC0AC
:107550001EBC0DB407FEFDCF8EB5FB01E90FF11D7A
:1075600087839F5FFB018481981790F3439A0F9064
:107570000F900F900F90CF91DF911F910F91FF907F
:10758000EF900895DF93CF9300D000D0CDB7DEB752
:10759000982F439882E08EBD0DB407FEFDCF8EB5C7
:1075A0009EBD0DB407FEFDCF8EB5F9016623D9F05F
:1075B0002C83FB83CA01AA27BB27382F282F2C71C5
:1075C000220F220F220F3370230F28602A8375E0C9
:1075D000969587957A95E1F78983FE0131969E010C
:1075E0002B5F3F4F0FC0C90163E0969587956A9561
:1075F000E1F78983822F8295880F807E8A831B82A0
:107600001C82EBCF80818EBD0DB407FEFDCF8EB501
:107610003196E217F307B1F7439A0F900F900F904E
:107620000F90CF91DF9108951F93DF93CF9300D0F8
:10763000CDB7DEB7229A84B1886284B9249880E5F8
:107640008CBD81E08DBD439A3B9A439880EC8EBD02
:107650000DB407FEFDCF8EB5439A1A82198209C078
:1076600089819A8197FD0AC089819A8101969A83BE
:10767000898389819A8180509D4794F380EE60E8E8
:107680000E94F339813009F44BC183E060E00E942D
:10769000F339182F813009F443C1439882E08EBD3D
:1076A0000DB407FEFDCF8EB58AE28EBD0DB407FE88
:1076B000FDCF8EB581E08EBD0DB407FEFDCF8EB53A
:1076C000439A439882E08EBD0DB407FEFDCF8EB580
:1076D00089E28EBD0DB407FEFDCF8EB586EB8EBD63
:1076E0000DB407FEFDCF8EB5439A439882E08EBD60
:1076F0000DB407FEFDCF8EB588E28EBD0DB407FE3A
:10770000FDCF8EB584E08EBD0DB407FEFDCF8EB5E6
:10771000439A80E260E020E030E040E050E00E94E8
:10772000C23A84E260E020E030E040E050E00E94B5
:10773000C23A80E061E020E030E040E050E00E94AA
:10774000C23A84E060E020E030E040E050E00E9497
:10775000C23A88E061E020E030E040E050E00E9482
:10776000C23A80E160E020E030E040E050E00E947A
:10777000C23A84E160E020E030E040E050E00E9466
:10778000C23A88E160E020E030E040E050E00E9452
:10779000C23A80E592E043989EBD0DB407FEFDCF4E
:1077A0002EB580528EBD805E0DB407FEFDCF2EB586
:1077B0001EBC0DB407FEFDCF2EB5439A43989EBD67
:1077C0000DB407FEFDCF2EB580518EBD805F0DB488
:1077D00007FEFDCF2EB51EBC0DB407FEFDCF2EB5A6
:1077E000439A43989EBD0DB407FEFDCF2EB58EBDC6
:1077F0000DB407FEFDCF2EB51EBC0DB407FEFDCFA8
:107800002EB5439A8F5F8E3531F6439882E08EBD58
:107810000DB407FEFDCF8EB580E68EBD0DB407FE1C
:10782000FDCF8EB51EBC0DB407FEFDCF8EB5439ABD
:10783000439882E08EBD0DB407FEFDCF8EB580E784
:107840008EBD0DB407FEFDCF8EB51EBC0DB407FE78
:10785000FDCF8EB5439A439885E08EBD0DB407FEEB
:10786000FDCF8EB580E68EBD0DB407FEFDCF8EB583
:1078700084E68EBD0DB407FEFDCF8EB584E08EBDCF
:107880000DB407FEFDCF8EB5439A439885E08EBDBB
:107890000DB407FEFDCF8EB580E78EBD0DB407FE9B
:1078A000FDCF8EB580E68EBD0DB407FEFDCF8EB543
:1078B0001EBC0DB407FEFDCF8EB5439A439882E0FF
:1078C0008EBD0DB407FEFDCF8EB58CE28EBD0DB41E
:1078D00007FEFDCF8EB51EBC0DB407FEFDCF8EB5E5
:1078E000439A439882E08EBD0DB407FEFDCF8EB55E
:1078F0008BE28EBD0DB407FEFDCF8EB583E08EBD4D
:107900000DB407FEFDCF8EB5439AE99A112341F4D9
:1079100080EE60E00E94F339882311F481E001C019
:107920008FEF0F900F90CF91DF911F910895CF921D
:10793000DF92FF920F931F93DF93CF9300D000D07D
:10794000CDB7DEB78C01E998439880EA8EBD0DB4BF
:1079500007FEFDCF8EB51EBC0DB407FEFDCF8EB564
:10796000439AE99A82FD02C080E009C084FD02C00A
:1079700081E005C086FF02C08FEF7CC082E0F80185
:10798000F480E9984398C82EDD24C601880F991F1A
:1079900080648EBD0DB407FEFDCF8EB5F801408129
:1079A0005181628173819A0185818823D9F04C834A
:1079B0003B83CB01AA27BB27382F282F2C71220FFE
:1079C000220F220F3370230F28602A83A5E096959B
:1079D0008795AA95E1F78983FE0131969E012B5F79
:1079E0003F4F0FC0CA01F3E096958795FA95E1F7EE
:1079F0008983842F8295880F807E8A831B821C82D4
:107A0000EBCF80818EBD0DB407FEFDCF8EB53196D4
:107A1000E217F307B1F7F8018681813011F08F2D5D
:107A200002C08F2D80648EBD0DB407FEFDCF8EB5D4
:107A300090E00AC0F801E90FF11D87818EBD0DB4F9
:107A400007FEFDCF8EB59F5F9F15A0F3439AE99A7D
:107A5000E998439881E090E002C0880F991FCA948A
:107A6000E2F780688EBD0DB407FEFDCF8EB5439A58
:107A7000E99A81E00F900F900F900F90CF91DF91D6
:107A80001F910F91FF90DF90CF900895BC01439814
:107A900080EA8EBD0DB407FEFDCF8EB51EBC0DB4C1
:107AA00007FEFDCF8EB5439A8370833051F48091E9
:107AB00005018F5F8093050181500E94253A81E086
:107AC0000895882311F48EEF089581500E94253A7D
:107AD00081E008951F920F920FB60F9211242F93F9
:107AE0003F934F935F936F937F938F939F93AF9346
:107AF000BF93EF93FF9386E091E00E94463D813073
:107B000021F486E091E00E948839FF91EF91BF91C6
:107B1000AF919F918F917F916F915F914F913F9125
:107B20002F910F900FBE0F901F901895F894FFCFD4
:107C00000C9402380C9402000C946A3D0C9406000B
:107C10000C9408000C940A000C940C000C940E00B8
:107C20000C9410000C9412000C9414000C94160088
:107C30000C9418000C941A000C941C000C941E0058
:107C40000C9420000C9422000C9424000C94260028
:107C50000C9428000C942A000C942C000C942E00F8
:107C60000C9430000C9432004091030150910401B7
:107C700080910001882309F430C020E030E061E009
:107C8000FA01E20FF31F80819181F9010C016093E9
:107C90005700E89511242E5F3F4F2038310581F7BA
:107CA0009FB7F894F999FECFE0910101F09102019C
:107CB00083E080935700E89507B600FCFDCF85E090
:107CC00080935700E89507B600FCFDCF10920001A5
:107CD00081E180935700E8959FBF0895EF92FF924E
:107CE0000F931F93CF93DF93EC017B01009103016E
:107CF000109104019C01220F232F221F330B319579
:107D00008091010190910201880F892F881F990BA2
:107D100091952817390729F00E94343ECE010E9420
:107D2000E039CE018E779070080F191FF801F182AB
:107D3000E082D0930201C093010181E080930001B1
:107D4000DF91CF911F910F91FF90EF9008952FEF4A
:107D50003FEF30930201209301019093040180933F
:107D600003011092000108950000000000000000CF
:107D70000000000000000000000000000000000003
:107D800000000000000000000000000000000000F3
:107D900000000000000000000000000000000000E3
:107DA00000000000000000000000000000000000D3
:107F8000DC019B01F8944F674D5F5F4F01E013E008
:107F900075E061E127C08FE72038380730F5A895F4
:107FA000FD0185919491F9010C0100935700E8952A
:107FB0001124E9012296CE018F779070892B81F4EC
:107FC00010935700E89507B600FCFDCFF9017093B8
:107FD0005700E89507B600FCFDCF60935700E89581
:0C7FE00012969E0142505040B1F6FFCFB7
:040000030000700089
:00000001FF
